{
  "contractName": "ShipmentContract",
  "abi": [
    {
      "inputs": [],
      "name": "currentShipmentStage",
      "outputs": [
        {
          "internalType": "string",
          "name": "stageName",
          "type": "string"
        },
        {
          "internalType": "uint256",
          "name": "cost",
          "type": "uint256"
        },
        {
          "internalType": "uint256",
          "name": "processedTime",
          "type": "uint256"
        }
      ],
      "stateMutability": "view",
      "type": "function",
      "constant": true
    },
    {
      "inputs": [
        {
          "internalType": "uint256",
          "name": "",
          "type": "uint256"
        }
      ],
      "name": "packageItems",
      "outputs": [
        {
          "internalType": "string",
          "name": "itemCategory",
          "type": "string"
        },
        {
          "internalType": "uint256",
          "name": "weight",
          "type": "uint256"
        },
        {
          "internalType": "uint256",
          "name": "price",
          "type": "uint256"
        }
      ],
      "stateMutability": "view",
      "type": "function",
      "constant": true
    },
    {
      "inputs": [],
      "name": "scheduledDeliveryTime",
      "outputs": [
        {
          "internalType": "uint256",
          "name": "",
          "type": "uint256"
        }
      ],
      "stateMutability": "view",
      "type": "function",
      "constant": true
    },
    {
      "inputs": [
        {
          "internalType": "uint256",
          "name": "",
          "type": "uint256"
        }
      ],
      "name": "shipmentParameters",
      "outputs": [
        {
          "internalType": "string",
          "name": "parameterName",
          "type": "string"
        },
        {
          "internalType": "string",
          "name": "value",
          "type": "string"
        }
      ],
      "stateMutability": "view",
      "type": "function",
      "constant": true
    },
    {
      "inputs": [
        {
          "internalType": "uint256",
          "name": "",
          "type": "uint256"
        }
      ],
      "name": "shipmentStages",
      "outputs": [
        {
          "internalType": "string",
          "name": "stageName",
          "type": "string"
        },
        {
          "internalType": "uint256",
          "name": "cost",
          "type": "uint256"
        },
        {
          "internalType": "uint256",
          "name": "processedTime",
          "type": "uint256"
        }
      ],
      "stateMutability": "view",
      "type": "function",
      "constant": true
    },
    {
      "inputs": [],
      "name": "shipmentStartTime",
      "outputs": [
        {
          "internalType": "uint256",
          "name": "",
          "type": "uint256"
        }
      ],
      "stateMutability": "view",
      "type": "function",
      "constant": true
    },
    {
      "inputs": [
        {
          "internalType": "address payable",
          "name": "sender1",
          "type": "address"
        },
        {
          "internalType": "address payable",
          "name": "receiver1",
          "type": "address"
        },
        {
          "internalType": "address payable",
          "name": "carrier1",
          "type": "address"
        }
      ],
      "name": "registerParties",
      "outputs": [],
      "stateMutability": "nonpayable",
      "type": "function"
    },
    {
      "inputs": [
        {
          "internalType": "uint256",
          "name": "tentativeDays",
          "type": "uint256"
        },
        {
          "internalType": "uint256",
          "name": "tentativeCost",
          "type": "uint256"
        },
        {
          "internalType": "string",
          "name": "traspMode",
          "type": "string"
        }
      ],
      "name": "initiateShipment",
      "outputs": [],
      "stateMutability": "nonpayable",
      "type": "function"
    },
    {
      "inputs": [
        {
          "internalType": "uint256",
          "name": "packageCount",
          "type": "uint256"
        },
        {
          "internalType": "string[]",
          "name": "inputPackageCategory",
          "type": "string[]"
        },
        {
          "internalType": "uint256[]",
          "name": "inputWeight",
          "type": "uint256[]"
        },
        {
          "internalType": "uint256[]",
          "name": "inputPrice",
          "type": "uint256[]"
        },
        {
          "internalType": "uint256",
          "name": "totalPackagingCost",
          "type": "uint256"
        },
        {
          "internalType": "uint256",
          "name": "totalWeight",
          "type": "uint256"
        }
      ],
      "name": "updatePackageInfo",
      "outputs": [],
      "stateMutability": "nonpayable",
      "type": "function"
    },
    {
      "inputs": [
        {
          "internalType": "string",
          "name": "insuranceCost",
          "type": "string"
        },
        {
          "internalType": "string",
          "name": "clearenceCost",
          "type": "string"
        },
        {
          "internalType": "uint256",
          "name": "totalCostInvolved",
          "type": "uint256"
        }
      ],
      "name": "updatePrimaryTransportInfo",
      "outputs": [],
      "stateMutability": "nonpayable",
      "type": "function"
    },
    {
      "inputs": [],
      "name": "postDelivery",
      "outputs": [],
      "stateMutability": "nonpayable",
      "type": "function"
    },
    {
      "inputs": [
        {
          "internalType": "uint256",
          "name": "damageCost",
          "type": "uint256"
        },
        {
          "internalType": "uint256",
          "name": "lostPackageCost",
          "type": "uint256"
        },
        {
          "internalType": "uint256",
          "name": "delayCost",
          "type": "uint256"
        }
      ],
      "name": "initiateDisputeClaim",
      "outputs": [],
      "stateMutability": "nonpayable",
      "type": "function"
    },
    {
      "inputs": [],
      "name": "getPackageDetails",
      "outputs": [
        {
          "components": [
            {
              "internalType": "string",
              "name": "itemCategory",
              "type": "string"
            },
            {
              "internalType": "uint256",
              "name": "weight",
              "type": "uint256"
            },
            {
              "internalType": "uint256",
              "name": "price",
              "type": "uint256"
            }
          ],
          "internalType": "struct ShipmentContract.PackageItem[]",
          "name": "",
          "type": "tuple[]"
        }
      ],
      "stateMutability": "view",
      "type": "function",
      "constant": true
    },
    {
      "inputs": [],
      "name": "getCurrentState",
      "outputs": [
        {
          "components": [
            {
              "internalType": "string",
              "name": "stageName",
              "type": "string"
            },
            {
              "internalType": "uint256",
              "name": "cost",
              "type": "uint256"
            },
            {
              "internalType": "uint256",
              "name": "processedTime",
              "type": "uint256"
            }
          ],
          "internalType": "struct ShipmentContract.ShipmentStage",
          "name": "",
          "type": "tuple"
        }
      ],
      "stateMutability": "view",
      "type": "function",
      "constant": true
    },
    {
      "inputs": [],
      "name": "getShipmentProgress",
      "outputs": [
        {
          "components": [
            {
              "internalType": "string",
              "name": "stageName",
              "type": "string"
            },
            {
              "internalType": "uint256",
              "name": "cost",
              "type": "uint256"
            },
            {
              "internalType": "uint256",
              "name": "processedTime",
              "type": "uint256"
            }
          ],
          "internalType": "struct ShipmentContract.ShipmentStage[]",
          "name": "",
          "type": "tuple[]"
        }
      ],
      "stateMutability": "view",
      "type": "function",
      "constant": true
    }
  ],
  "bytecode": "0x60806040526040518060200160405280600081525060069081620000249190620002ed565b506000600755600060085560006009556000600a5560405180602001604052806000815250600b9081620000599190620002ed565b5060006010553480156200006c57600080fd5b50620003d4565b600081519050919050565b7f4e487b7100000000000000000000000000000000000000000000000000000000600052604160045260246000fd5b7f4e487b7100000000000000000000000000000000000000000000000000000000600052602260045260246000fd5b60006002820490506001821680620000f557607f821691505b6020821081036200010b576200010a620000ad565b5b50919050565b60008190508160005260206000209050919050565b60006020601f8301049050919050565b600082821b905092915050565b600060088302620001757fffffffffffffffffffffffffffffffffffffffffffffffffffffffffffffffff8262000136565b62000181868362000136565b95508019841693508086168417925050509392505050565b6000819050919050565b6000819050919050565b6000620001ce620001c8620001c28462000199565b620001a3565b62000199565b9050919050565b6000819050919050565b620001ea83620001ad565b62000202620001f982620001d5565b84845462000143565b825550505050565b600090565b620002196200020a565b62000226818484620001df565b505050565b5b818110156200024e57620002426000826200020f565b6001810190506200022c565b5050565b601f8211156200029d57620002678162000111565b620002728462000126565b8101602085101562000282578190505b6200029a620002918562000126565b8301826200022b565b50505b505050565b600082821c905092915050565b6000620002c260001984600802620002a2565b1980831691505092915050565b6000620002dd8383620002af565b9150826002028217905092915050565b620002f88262000073565b67ffffffffffffffff8111156200031457620003136200007e565b5b620003208254620000dc565b6200032d82828562000252565b600060209050601f83116001811462000365576000841562000350578287015190505b6200035c8582620002cf565b865550620003cc565b601f198416620003758662000111565b60005b828110156200039f5784890151825560018201915060208501945060208101905062000378565b86831015620003bf5784890151620003bb601f891682620002af565b8355505b6001600288020188555050505b505050505050565b61210680620003e46000396000f3fe608060405234801561001057600080fd5b50600436106100f55760003560e01c80636457108911610097578063b2bae6ee11610066578063b2bae6ee14610269578063de7ec83014610285578063df0daf10146102a1578063e707f0d0146102bd576100f5565b806364571089146101c95780637b4a418f146101fb5780638f2e183c146102175780639deae80514610249576100f5565b8063378aa701116100d3578063378aa701146101525780635848bfea146101705780635cf32673146101a1578063607f7842146101ab576100f5565b806303601f1d146100fa57806304fc2f691461011857806306f89f8814610136575b600080fd5b6101026102db565b60405161010f919061103f565b60405180910390f35b6101206102e1565b60405161012d919061120b565b60405180910390f35b610150600480360381019061014b91906113a2565b6103e6565b005b61015a610685565b604051610167919061147d565b60405180910390f35b61018a6004803603810190610185919061149f565b610773565b604051610198929190611516565b60405180910390f35b6101a96108b7565b005b6101b3610980565b6040516101c0919061103f565b60405180910390f35b6101e360048036038101906101de919061149f565b610986565b6040516101f29392919061154d565b60405180910390f35b6102156004803603810190610210919061158b565b610a48565b005b610231600480360381019061022c919061149f565b610a80565b6040516102409392919061154d565b60405180910390f35b610251610b42565b6040516102609392919061154d565b60405180910390f35b610283600480360381019061027e91906115fa565b610be2565b005b61029f600480360381019061029a91906117f6565b610c73565b005b6102bb60048036038101906102b69190611935565b610e39565b005b6102c5610f00565b6040516102d29190611a9a565b60405180910390f35b60075481565b6060600c805480602002602001604051908101604052809291908181526020016000905b828210156103dd578382906000526020600020906003020160405180606001604052908160008201805461033890611aeb565b80601f016020809104026020016040519081016040528092919081815260200182805461036490611aeb565b80156103b15780601f10610386576101008083540402835291602001916103b1565b820191906000526020600020905b81548152906001019060200180831161039457829003601f168201915b505050505081526020016001820154815260200160028201548152505081526020019060010190610305565b50505050905090565b601260405180604001604052806040518060400160405280600e81526020017f496e737572616e636520636f7374000000000000000000000000000000000000815250815260200185815250908060018154018082558091505060019003906000526020600020906002020160009091909190915060008201518160000190816104709190611cc8565b5060208201518160010190816104869190611cc8565b505050601260405180604001604052806040518060400160405280601581526020017f437573746f6d20636c656172656e636520636f73740000000000000000000000815250815260200184815250908060018154018082558091505060019003906000526020600020906002020160009091909190915060008201518160000190816105139190611cc8565b5060208201518160010190816105299190611cc8565b50505060035460008054906101000a900473ffffffffffffffffffffffffffffffffffffffff1673ffffffffffffffffffffffffffffffffffffffff163110156105a8576040517f08c379a000000000000000000000000000000000000000000000000000000000815260040161059f90611e32565b60405180910390fd5b600c60405180606001604052806040518060400160405280600a81526020017f4469737061746368656400000000000000000000000000000000000000000000815250815260200183815260200142815250908060018154018082558091505060019003906000526020600020906003020160009091909190915060008201518160000190816106389190611cc8565b50602082015181600101556040820151816002015550506010600081548092919061066290611e81565b919050555080600460008282546106799190611ec9565b92505081905550505050565b61068d611005565b600c600160105461069e9190611efd565b815481106106af576106ae611f31565b5b90600052602060002090600302016040518060600160405290816000820180546106d890611aeb565b80601f016020809104026020016040519081016040528092919081815260200182805461070490611aeb565b80156107515780601f1061072657610100808354040283529160200191610751565b820191906000526020600020905b81548152906001019060200180831161073457829003601f168201915b5050505050815260200160018201548152602001600282015481525050905090565b6012818154811061078357600080fd5b90600052602060002090600202016000915090508060000180546107a690611aeb565b80601f01602080910402602001604051908101604052809291908181526020018280546107d290611aeb565b801561081f5780601f106107f45761010080835404028352916020019161081f565b820191906000526020600020905b81548152906001019060200180831161080257829003601f168201915b50505050509080600101805461083490611aeb565b80601f016020809104026020016040519081016040528092919081815260200182805461086090611aeb565b80156108ad5780601f10610882576101008083540402835291602001916108ad565b820191906000526020600020905b81548152906001019060200180831161089057829003601f168201915b5050505050905082565b600c60405180606001604052806040518060400160405280601181526020017f5061636b6167652044656c69766572656400000000000000000000000000000081525081526020016000815260200142815250908060018154018082558091505060019003906000526020600020906003020160009091909190915060008201518160000190816109489190611cc8565b50602082015181600101556040820151816002015550506010600081548092919061097290611e81565b919050555042600881905550565b60095481565b600c818154811061099657600080fd5b90600052602060002090600302016000915090508060000180546109b990611aeb565b80601f01602080910402602001604051908101604052809291908181526020018280546109e590611aeb565b8015610a325780601f10610a0757610100808354040283529160200191610a32565b820191906000526020600020905b815481529060010190602001808311610a1557829003601f168201915b5050505050908060010154908060020154905083565b426007819055506201518083610a5e9190611f60565b600981905550816003819055508060069081610a7a9190611cc8565b50505050565b60118181548110610a9057600080fd5b9060005260206000209060030201600091509050806000018054610ab390611aeb565b80601f0160208091040260200160405190810160405280929190818152602001828054610adf90611aeb565b8015610b2c5780601f10610b0157610100808354040283529160200191610b2c565b820191906000526020600020905b815481529060010190602001808311610b0f57829003601f168201915b5050505050908060010154908060020154905083565b600d806000018054610b5390611aeb565b80601f0160208091040260200160405190810160405280929190818152602001828054610b7f90611aeb565b8015610bcc5780601f10610ba157610100808354040283529160200191610bcc565b820191906000526020600020905b815481529060010190602001808311610baf57829003601f168201915b5050505050908060010154908060020154905083565b6009546008541115610c1057806005604051610bfd90611ff9565b9081526020016040518091039020819055505b826005604051610c1f9061205a565b908152602001604051809103902081905550816005604051610c40906120bb565b9081526020016040518091039020819055506000828483610c619190611ec9565b610c6b9190611ec9565b905050505050565b600c60405180606001604052806040518060400160405280600981526020017f5061636b6167696e67000000000000000000000000000000000000000000000081525081526020018481526020014281525090806001815401808255809150506001900390600052602060002090600302016000909190919091506000820151816000019081610d039190611cc8565b506020820151816001015560408201518160020155505060106000815480929190610d2d90611e81565b91905055508160046000828254610d449190611ec9565b9250508190555080600a8190555060005b86811015610e305760116040518060600160405280888481518110610d7d57610d7c611f31565b5b60200260200101518152602001878481518110610d9d57610d9c611f31565b5b60200260200101518152602001868481518110610dbd57610dbc611f31565b5b602002602001015181525090806001815401808255809150506001900390600052602060002090600302016000909190919091506000820151816000019081610e069190611cc8565b50602082015181600101556040820151816002015550508080610e2890611e81565b915050610d55565b50505050505050565b826000806101000a81548173ffffffffffffffffffffffffffffffffffffffff021916908373ffffffffffffffffffffffffffffffffffffffff16021790555081600160006101000a81548173ffffffffffffffffffffffffffffffffffffffff021916908373ffffffffffffffffffffffffffffffffffffffff16021790555080600260006101000a81548173ffffffffffffffffffffffffffffffffffffffff021916908373ffffffffffffffffffffffffffffffffffffffff160217905550505050565b60606011805480602002602001604051908101604052809291908181526020016000905b82821015610ffc5783829060005260206000209060030201604051806060016040529081600082018054610f5790611aeb565b80601f0160208091040260200160405190810160405280929190818152602001828054610f8390611aeb565b8015610fd05780601f10610fa557610100808354040283529160200191610fd0565b820191906000526020600020905b815481529060010190602001808311610fb357829003601f168201915b505050505081526020016001820154815260200160028201548152505081526020019060010190610f24565b50505050905090565b60405180606001604052806060815260200160008152602001600081525090565b6000819050919050565b61103981611026565b82525050565b60006020820190506110546000830184611030565b92915050565b600081519050919050565b600082825260208201905092915050565b6000819050602082019050919050565b600081519050919050565b600082825260208201905092915050565b60005b838110156110c05780820151818401526020810190506110a5565b60008484015250505050565b6000601f19601f8301169050919050565b60006110e882611086565b6110f28185611091565b93506111028185602086016110a2565b61110b816110cc565b840191505092915050565b61111f81611026565b82525050565b6000606083016000830151848203600086015261114282826110dd565b91505060208301516111576020860182611116565b50604083015161116a6040860182611116565b508091505092915050565b60006111818383611125565b905092915050565b6000602082019050919050565b60006111a18261105a565b6111ab8185611065565b9350836020820285016111bd85611076565b8060005b858110156111f957848403895281516111da8582611175565b94506111e583611189565b925060208a019950506001810190506111c1565b50829750879550505050505092915050565b600060208201905081810360008301526112258184611196565b905092915050565b6000604051905090565b600080fd5b600080fd5b600080fd5b600080fd5b7f4e487b7100000000000000000000000000000000000000000000000000000000600052604160045260246000fd5b611283826110cc565b810181811067ffffffffffffffff821117156112a2576112a161124b565b5b80604052505050565b60006112b561122d565b90506112c1828261127a565b919050565b600067ffffffffffffffff8211156112e1576112e061124b565b5b6112ea826110cc565b9050602081019050919050565b82818337600083830152505050565b6000611319611314846112c6565b6112ab565b90508281526020810184848401111561133557611334611246565b5b6113408482856112f7565b509392505050565b600082601f83011261135d5761135c611241565b5b813561136d848260208601611306565b91505092915050565b61137f81611026565b811461138a57600080fd5b50565b60008135905061139c81611376565b92915050565b6000806000606084860312156113bb576113ba611237565b5b600084013567ffffffffffffffff8111156113d9576113d861123c565b5b6113e586828701611348565b935050602084013567ffffffffffffffff8111156114065761140561123c565b5b61141286828701611348565b92505060406114238682870161138d565b9150509250925092565b6000606083016000830151848203600086015261144a82826110dd565b915050602083015161145f6020860182611116565b5060408301516114726040860182611116565b508091505092915050565b60006020820190508181036000830152611497818461142d565b905092915050565b6000602082840312156114b5576114b4611237565b5b60006114c38482850161138d565b91505092915050565b600082825260208201905092915050565b60006114e882611086565b6114f281856114cc565b93506115028185602086016110a2565b61150b816110cc565b840191505092915050565b6000604082019050818103600083015261153081856114dd565b9050818103602083015261154481846114dd565b90509392505050565b6000606082019050818103600083015261156781866114dd565b90506115766020830185611030565b6115836040830184611030565b949350505050565b6000806000606084860312156115a4576115a3611237565b5b60006115b28682870161138d565b93505060206115c38682870161138d565b925050604084013567ffffffffffffffff8111156115e4576115e361123c565b5b6115f086828701611348565b9150509250925092565b60008060006060848603121561161357611612611237565b5b60006116218682870161138d565b93505060206116328682870161138d565b92505060406116438682870161138d565b9150509250925092565b600067ffffffffffffffff8211156116685761166761124b565b5b602082029050602081019050919050565b600080fd5b600061169161168c8461164d565b6112ab565b905080838252602082019050602084028301858111156116b4576116b3611679565b5b835b818110156116fb57803567ffffffffffffffff8111156116d9576116d8611241565b5b8086016116e68982611348565b855260208501945050506020810190506116b6565b5050509392505050565b600082601f83011261171a57611719611241565b5b813561172a84826020860161167e565b91505092915050565b600067ffffffffffffffff82111561174e5761174d61124b565b5b602082029050602081019050919050565b600061177261176d84611733565b6112ab565b9050808382526020820190506020840283018581111561179557611794611679565b5b835b818110156117be57806117aa888261138d565b845260208401935050602081019050611797565b5050509392505050565b600082601f8301126117dd576117dc611241565b5b81356117ed84826020860161175f565b91505092915050565b60008060008060008060c0878903121561181357611812611237565b5b600061182189828a0161138d565b965050602087013567ffffffffffffffff8111156118425761184161123c565b5b61184e89828a01611705565b955050604087013567ffffffffffffffff81111561186f5761186e61123c565b5b61187b89828a016117c8565b945050606087013567ffffffffffffffff81111561189c5761189b61123c565b5b6118a889828a016117c8565b93505060806118b989828a0161138d565b92505060a06118ca89828a0161138d565b9150509295509295509295565b600073ffffffffffffffffffffffffffffffffffffffff82169050919050565b6000611902826118d7565b9050919050565b611912816118f7565b811461191d57600080fd5b50565b60008135905061192f81611909565b92915050565b60008060006060848603121561194e5761194d611237565b5b600061195c86828701611920565b935050602061196d86828701611920565b925050604061197e86828701611920565b9150509250925092565b600081519050919050565b600082825260208201905092915050565b6000819050602082019050919050565b600060608301600083015184820360008601526119d182826110dd565b91505060208301516119e66020860182611116565b5060408301516119f96040860182611116565b508091505092915050565b6000611a1083836119b4565b905092915050565b6000602082019050919050565b6000611a3082611988565b611a3a8185611993565b935083602082028501611a4c856119a4565b8060005b85811015611a885784840389528151611a698582611a04565b9450611a7483611a18565b925060208a01995050600181019050611a50565b50829750879550505050505092915050565b60006020820190508181036000830152611ab48184611a25565b905092915050565b7f4e487b7100000000000000000000000000000000000000000000000000000000600052602260045260246000fd5b60006002820490506001821680611b0357607f821691505b602082108103611b1657611b15611abc565b5b50919050565b60008190508160005260206000209050919050565b60006020601f8301049050919050565b600082821b905092915050565b600060088302611b7e7fffffffffffffffffffffffffffffffffffffffffffffffffffffffffffffffff82611b41565b611b888683611b41565b95508019841693508086168417925050509392505050565b6000819050919050565b6000611bc5611bc0611bbb84611026565b611ba0565b611026565b9050919050565b6000819050919050565b611bdf83611baa565b611bf3611beb82611bcc565b848454611b4e565b825550505050565b600090565b611c08611bfb565b611c13818484611bd6565b505050565b5b81811015611c3757611c2c600082611c00565b600181019050611c19565b5050565b601f821115611c7c57611c4d81611b1c565b611c5684611b31565b81016020851015611c65578190505b611c79611c7185611b31565b830182611c18565b50505b505050565b600082821c905092915050565b6000611c9f60001984600802611c81565b1980831691505092915050565b6000611cb88383611c8e565b9150826002028217905092915050565b611cd182611086565b67ffffffffffffffff811115611cea57611ce961124b565b5b611cf48254611aeb565b611cff828285611c3b565b600060209050601f831160018114611d325760008415611d20578287015190505b611d2a8582611cac565b865550611d92565b601f198416611d4086611b1c565b60005b82811015611d6857848901518255600182019150602085019450602081019050611d43565b86831015611d855784890151611d81601f891682611c8e565b8355505b6001600288020188555050505b505050505050565b7f496e73756666696369656e742066756e647320696e2073656e6465722773206160008201527f63636f756e742e2043616e6e6f742070726f6365656420666f72205472616e7360208201527f706f727400000000000000000000000000000000000000000000000000000000604082015250565b6000611e1c6044836114cc565b9150611e2782611d9a565b606082019050919050565b60006020820190508181036000830152611e4b81611e0f565b9050919050565b7f4e487b7100000000000000000000000000000000000000000000000000000000600052601160045260246000fd5b6000611e8c82611026565b91507fffffffffffffffffffffffffffffffffffffffffffffffffffffffffffffffff8203611ebe57611ebd611e52565b5b600182019050919050565b6000611ed482611026565b9150611edf83611026565b9250828201905080821115611ef757611ef6611e52565b5b92915050565b6000611f0882611026565b9150611f1383611026565b9250828203905081811115611f2b57611f2a611e52565b5b92915050565b7f4e487b7100000000000000000000000000000000000000000000000000000000600052603260045260246000fd5b6000611f6b82611026565b9150611f7683611026565b9250828202611f8481611026565b91508282048414831517611f9b57611f9a611e52565b5b5092915050565b600081905092915050565b7f64656c6179000000000000000000000000000000000000000000000000000000600082015250565b6000611fe3600583611fa2565b9150611fee82611fad565b600582019050919050565b600061200482611fd6565b9150819050919050565b7f64616d6167650000000000000000000000000000000000000000000000000000600082015250565b6000612044600683611fa2565b915061204f8261200e565b600682019050919050565b600061206582612037565b9150819050919050565b7f6c6f737400000000000000000000000000000000000000000000000000000000600082015250565b60006120a5600483611fa2565b91506120b08261206f565b600482019050919050565b60006120c682612098565b915081905091905056fea2646970667358221220605219fd8225ad2b34f017eae448e4b15dbb601c3a25825b93cff79babc6b75964736f6c63430008120033",
  "immutableReferences": {},
  "source": "// SPDX-License-Identifier: GPL-3.0\r\n\r\n//pragma solidity >=0.7.0 <0.9.0;\r\n\r\npragma solidity ^0.8.8;\r\n\r\ncontract ShipmentContract\r\n{\r\n    address payable sender;\r\n    address payable receiver;\r\n    address payable carrier;\r\n    uint shipmentMaxCost;\r\n    uint shipmentCostIncurred;\r\n    mapping(string=>uint) disputeTypes; // store information on dispute type and the claim amount\r\n    string transportMode = \"\";\r\n    uint public shipmentStartTime = 0;\r\n    uint deliveryTime = 0;\r\n    uint public scheduledDeliveryTime = 0;\r\n    uint packageTotalWeight = 0; // how much the package weighs\r\n    string packageType = \"\"; // what type of package it is - documents or food or electronics\r\n\r\n    ShipmentStage[] public shipmentStages;\r\n    ShipmentStage public currentShipmentStage;\r\n    uint stageCounter = 0;\r\n    PackageItem[] public packageItems; //details of package items\r\n    ShipmentParameter[] public shipmentParameters;\r\n\r\n    struct ShipmentStage\r\n    {\r\n        string stageName;\r\n        uint cost;\r\n        uint processedTime;\r\n    }\r\n\r\n    struct PackageItem\r\n    {\r\n        string itemCategory;\r\n        uint weight;\r\n        uint price;\r\n    }\r\n\r\n    struct ShipmentParameter\r\n    {\r\n        string parameterName;\r\n        string value;\r\n    }\r\n\r\n    function registerParties(address payable sender1, address payable receiver1, address payable carrier1) public\r\n    {\r\n        sender = sender1;\r\n        receiver = receiver1;\r\n        carrier = carrier1;\r\n    }\r\n\r\n    function initiateShipment(uint tentativeDays, uint tentativeCost, string memory traspMode) public\r\n    {\r\n        //while deploying the contract, the shipment carrier has to enter these input data - max number of days for delivery,max cost of delivery, transport mode(road,air,water)\r\n        //require(msg.sender == carrier, \"Only carrier can initiate the shipment process.\");\r\n        shipmentStartTime = block.timestamp;\r\n        scheduledDeliveryTime = tentativeDays*1 days;\r\n        shipmentMaxCost = tentativeCost;\r\n        transportMode = traspMode;\r\n    }  \r\n\r\n    function updatePackageInfo(uint256 packageCount,string[] memory inputPackageCategory,uint[] memory inputWeight, uint[] memory inputPrice,uint totalPackagingCost, uint totalWeight) public\r\n    {\r\n        //require(sender.balance>=shipmentMaxCost,\"Insufficient funds in sender's account. Cannot proceed for packaging\");\r\n        //shipment provider has to call this method to start the shipment process. This method will update state variable currentShipmentStage\r\n        shipmentStages.push(ShipmentStage(\"Packaging\",totalPackagingCost,block.timestamp));\r\n        stageCounter++;\r\n        shipmentCostIncurred+=totalPackagingCost;\r\n        packageTotalWeight = totalWeight;\r\n        for(uint256 i=0;i<packageCount;i++)\r\n        {\r\n            packageItems.push(PackageItem(inputPackageCategory[i],inputWeight[i],inputPrice[i]));\r\n        }\r\n        //shipmentParameters.push(ShipmentParameter(\"Warehouse Temperature\",warehouseTemperature));\r\n        //shipmentParameters.push(ShipmentParameter(\"Warehouse Location\",wareHouseLocation));\r\n        //upload package photo to off chain components\r\n    }\r\n\r\n    function updatePrimaryTransportInfo(string memory insuranceCost, string memory clearenceCost, uint totalCostInvolved) public\r\n    {\r\n        //shipment provider has to call this method info such as insurance, custom clearence docs and cost involved\r\n        shipmentParameters.push(ShipmentParameter(\"Insurance cost\",insuranceCost));\r\n        shipmentParameters.push(ShipmentParameter(\"Custom clearence cost\",clearenceCost));\r\n        require(sender.balance>=shipmentMaxCost,\"Insufficient funds in sender's account. Cannot proceed for Transport\");\r\n        shipmentStages.push(ShipmentStage(\"Dispatched\",totalCostInvolved,block.timestamp));\r\n        stageCounter++;\r\n        shipmentCostIncurred+=totalCostInvolved;\r\n    }\r\n\r\n    function postDelivery() public\r\n    {\r\n        //shipment provider has to call this method to update after delivery info\r\n        //require(sender.balance>=shipmentMaxCost,\"Insufficient funds in sender's account. Cannot proceed for Delivery\");\r\n        shipmentStages.push(ShipmentStage(\"Package Delivered\",0,block.timestamp));\r\n        stageCounter++;\r\n        deliveryTime = block.timestamp;\r\n        //transfer ether to carrier\r\n        //carrier.transfer(shipmentMaxCost);\r\n        //upload package delivered photo to off chain components\r\n        //notify sender at this stage.  \r\n    }\r\n\r\n    function initiateDisputeClaim(uint damageCost, uint lostPackageCost, uint delayCost) public\r\n    {\r\n        //the sender/receiver has to call this method after verifying the delivery to submit a claim in case of delay or loss or damage\r\n        //require(msg.sender == sender || msg.sender == receiver, \"Only sender or receiver can initiate claim for dispute\");\r\n        if( deliveryTime > scheduledDeliveryTime)\r\n        {\r\n            disputeTypes[\"delay\"] = delayCost;\r\n        }\r\n        disputeTypes[\"damage\"] = damageCost;\r\n        disputeTypes[\"lost\"] = lostPackageCost;\r\n        //upload claim documents off chain\r\n        uint claimCost = delayCost + damageCost + lostPackageCost;\r\n        //transfer ether to sender in case of dispute\r\n        //sender.transfer(claimCost);\r\n    }\r\n\r\n    function getPackageDetails() public view returns(PackageItem[] memory)\r\n    {\r\n        return packageItems;\r\n    }\r\n\r\n    function getCurrentState() public view returns(ShipmentStage memory)\r\n    {\r\n        return shipmentStages[stageCounter-1];\r\n    }\r\n\r\n    function getShipmentProgress() public view returns(ShipmentStage[] memory)\r\n    {\r\n        return shipmentStages;\r\n    }\r\n}\r\n",
  "sourcePath": "E:\\academic\\Smart contract - blockchain\\dApp\\backend\\contracts\\ShipmentContract.sol",
  "compiler": {
    "name": "solc",
    "version": "0.8.18+commit.87f61d96.Emscripten.clang"
  },
  "schemaVersion": "3.4.12",
  "updatedAt": "2023-04-25T01:46:00.225Z",
  "networkType": "ethereum",
  "devdoc": {
    "kind": "dev",
    "methods": {},
    "version": 1
  },
  "userdoc": {
    "kind": "user",
    "methods": {},
    "version": 1
  }
}